:100000001EC042C041C040C03FC030C13DC078C1E9
:100010003BC03AC039C038C037C036C035C0000018
:100020000000370000000000380002020202020255
:10003000010204081020010300000400A70211249B
:100040001FBECFE5D2E0DEBFCDBF20E0A0E7B0E02D
:1000500001C01D92A93BB207E1F710E0A0E6B0E0B5
:10006000E0E1F6E002C005900D92A037B107D9F7A4
:1000700010E0CFE1D0E003C02197FE01C1D2CE3124
:10008000D107D1F78DD1C2C2BBCFCF92DF92EF9211
:10009000FF920F931F93CF93DF936C01EB017B01D2
:1000A000E40EF51E10E000E0CE15DF0561F0699169
:1000B000D601ED91FC910190F081E02DC6010995EA
:1000C000080F191FF1CFC801DF91CF911F910F9138
:1000D000FF90EF90DF90CF90089508952FB7F89498
:1000E000FC01458556853AE06095089420F478B384
:1000F000752378BB04C078B3742B78BB00004AD159
:1001000049D148D147D166953A9581F72FBF81E013
:1001100090E00895DC011F96ED91FC9120A131A1A2
:1001200082A193A12817390779F0A2A1B3A1AE0F3C
:10013000BF1F8C9122A133A12F5F3F4F2F71332717
:1001400033A322A390E008958FEF9FEF0895DC0181
:100150001F96ED91FC9120A131A182A193A12817B6
:10016000390739F082A193A1E80FF91F808190E04F
:1001700008958FEF9FEF0895DC011F96ED91FC919C
:1001800080A191A122A133A1821B930B8F7199278A
:10019000089590E0FC01EA5CFF4F3491FC01E05DC2
:1001A000FF4F2491FC01E65DFF4FE491EE23B9F08F
:1001B000332329F03130A1F48AB58F778ABDF0E07E
:1001C000EE0FFF1FEC5DFF4FA591B4918FB761114A
:1001D00018C0F894EC9120952E232C938FBF08958E
:1001E000323019F48AB58F7DE9CF333021F480B7EE
:1001F0008F7D80BFE4CF343011F78CB58F7D8CBDFF
:10020000DECFF894EC912E2BE8CFCF93DF9390E0E4
:10021000FC01E05DFF4F2491865D9F4FFC018491BE
:100220008823D1F090E0880F991FFC01E25EFF4F18
:10023000A591B491FC01EC5DFF4FC591D491623062
:1002400071F49FB7F8943C91822F809583238C930F
:10025000E8812E2B28839FBFDF91CF9108958FB720
:10026000F894EC912E2B2C938FBFF6CF1F920F9208
:100270000FB60F9211242F933F938F939F93AF93B9
:10028000BF938091B5009091B600A091B700B09156
:10029000B8003091B40026E0230F2D3768F129E82B
:1002A000230F0396A11DB11D2093B4008093B500C8
:1002B0009093B600A093B700B093B8008091B000BF
:1002C0009091B100A091B200B091B3000196A11D30
:1002D000B11D8093B0009093B100A093B200B09391
:1002E000B300BF91AF919F918F913F912F910F904C
:1002F0000FBE0F901F9018950296A11DB11DD4CF6F
:100300001F920F920FB60F9211242F933F934F938A
:100310005F937F938F939F93AF93BF93EF93FF93DD
:100320004091A00020E038E035D034D033D032D036
:1003300031D0889476B3742309F0089427953A95C0
:1003400009F0F3CF27D026D0E091A300F091A400CC
:1003500080A191A101968F71992742A153A1841781
:10036000950739F0A0A1B1A1AE0FBF1F2C9391A3A7
:1003700080A3449AFF91EF91BF91AF919F918F918C
:100380007F915F914F913F912F910F900FBE0F90F2
:100390001F9018958091A500982F9A95F1F70895D0
:1003A00083E08ABD83BF789489B7826089BF80E487
:1003B0008CBD8FEF8DBD87EC80BF86E886B961E08C
:1003C00080E023DF61E082E020DF62E083E01DDF88
:1003D00090E080E0D8D090E09093AB008093AA00AA
:1003E00082E48093A5004398469A4798419A409AA0
:1003F00087B32091A000922F9095982397BB88B344
:10040000822B88BB97B32091A100922B97BB88B316
:10041000822B88BB449A439A8091AA009091AB00AA
:10042000833091050CF489C063E070E0C2D061E0D4
:10043000009709F483C0019709F07FC060E080E075
:10044000A8DE61E082E0A5DEC3E0D0E026B381E073
:1004500090E0322F387023FD02C090E080E090934E
:10046000AF008093AE004091AC005091AD004817B2
:100470005907F1F03323E1F08091AA009091AB008D
:1004800001969093AB008093AA002FB7F8948091C7
:10049000B5009091B600A091B700B091B8002FBF01
:1004A0008093A6009093A700A093A800B093A90002
:1004B0008091AE009091AF009093AD008093AC001E
:1004C0002FB7F8948091B5009091B600A091B70035
:1004D000B091B8002FBF4091A6005091A700609145
:1004E000A8007091A900841B950BA60BB70B8C324A
:1004F0009140A105B10508F4A9CF1091AA0090E0A0
:1005000080E041D0181721F0612F90E080E043D0C7
:100510008091AA009091AB00833091059CF0BE01C0
:1005200048D061E0009779F0019761F460E080E0E5
:1005300030DE61E082E02DDE89CF60E080E029DE00
:1005400060E080CF60E080E024DE60E0F3CFE4E9AB
:10055000F0E01382128288EE93E0A0E0B0E08483A2
:100560009583A683B78384E690E09183808380E7B8
:1005700090E0908B878782E0848781E085878EEF8B
:100580008687118A0895E199FECF9FBB8EBBE09AC2
:1005900099278DB30895262FE199FECF1CBA9FBBF2
:1005A0008EBB2DBB0FB6F894E29AE19A0FBE01966E
:1005B000089597FB072E16F4009406D077FD08D017
:1005C0000BD007FC05D03EF4909581959F4F089580
:1005D000709561957F4F0895AA1BBB1B51E107C021
:1005E000AA1FBB1FA617B70710F0A61BB70B881FC3
:1005F000991F5A95A9F780959095BC01CD01089552
:10060000EE0FFF1F0590F491E02D0994F894FFCFB1
:10061000000000006E004500BC008A00A7006D00CD
:00000001FF
