:100000001EC042C041C040C03FC084C13DC0CCC141
:100010003BC03AC039C038C037C036C035C0000018
:100020000000370000000000380002020202020255
:1000300001020408102001030000040097021124AB
:100040001FBECFE5D2E0DEBFCDBF20E0A0E7B0E02D
:1000500001C01D92A13BB207E1F710E0A0E6B0E0BD
:10006000E0E4F6E002C005900D92A037B107D9F7A1
:1000700010E0CFE1D0E003C02197FE01D9D2CE310C
:10008000D107D1F7E1D1DAC2BBCFCF92DF92EF92A5
:10009000FF920F931F93CF93DF936C01EB017B01D2
:1000A000E40EF51E10E000E0CE15DF0561F0699169
:1000B000D601ED91FC910190F081E02DC6010995EA
:1000C000080F191FF1CFC801DF91CF911F910F9138
:1000D000FF90EF90DF90CF9008953FB7F894809114
:1000E000AD009091AE00A091AF00B091B00022B7EA
:1000F00008B601FE05C02F3F19F00196A11DB11DE4
:100100003FBFBA2FA92F982F8827BC01CD01620FBE
:10011000711D811D911D43E0660F771F881F991F78
:100120004A95D1F70895CF92DF92EF92FF92CF9345
:10013000DF93D3DFEB018CE2C82EDD24D394E12CD6
:10014000F12CCBDF6C1B7D0B683E7340A0F0C1141B
:10015000D104E104F10439F4DF91CF91FF90EF90E5
:10016000DF90CF90089581E0C81AD108E108F10826
:10017000C851DC4FE6CFC114D104E104F10409F702
:10018000EBCF08952FB7F894FC01458556853AE0EA
:100190006095089420F478B3752378BB04C078B3D5
:1001A000742B78BB00004AD149D148D147D166951C
:1001B0003A9581F72FBF81E090E00895DC011F960A
:1001C000ED91FC9120A131A182A193A128173907BB
:1001D00079F0A2A1B3A1AE0FBF1F8C9122A133A1D0
:1001E0002F5F3F4F2F71332733A322A390E0089551
:1001F0008FEF9FEF0895DC011F96ED91FC9120A1F8
:1002000031A182A193A12817390739F082A193A1C6
:10021000E80FF91F808190E008958FEF9FEF089518
:10022000DC011F96ED91FC9180A191A122A133A147
:10023000821B930B8F719927089590E0FC01EA5C73
:10024000FF4F3491FC01E05DFF4F2491FC01E65D1E
:10025000FF4FE491EE23B9F0332329F03130A1F4BC
:100260008AB58F778ABDF0E0EE0FFF1FEC5DFF4F80
:10027000A591B4918FB7611118C0F894EC912095B5
:100280002E232C938FBF0895323019F48AB58F7DB9
:10029000E9CF333021F480B78F7D80BFE4CF343095
:1002A00011F78CB58F7D8CBDDECFF894EC912E2BA1
:1002B000E8CFCF93DF9390E0FC01E05DFF4F249106
:1002C000865D9F4FFC0184918823D1F090E0880FD8
:1002D000991FFC01E25EFF4FA591B491FC01EC5D1A
:1002E000FF4FC591D491623071F49FB7F8943C915F
:1002F000822F809583238C93E8812E2B28839FBFA8
:10030000DF91CF9108958FB7F894EC912E2B2C9319
:100310008FBFF6CF1F920F920FB60F9211242F931B
:100320003F938F939F93AF93BF938091A900909138
:10033000AA00A091AB00B091AC003091A80026E0DB
:10034000230F2D3768F129E8230F0396A11DB11D56
:100350002093A8008093A9009093AA00A093AB00DB
:10036000B093AC008091AD009091AE00A091AF0031
:10037000B091B0000196A11DB11D8093AD00909386
:10038000AE00A093AF00B093B000BF91AF919F912A
:100390008F913F912F910F900FBE0F901F90189546
:1003A0000296A11DB11DD4CF1F920F920FB60F92CE
:1003B00011242F933F934F935F937F938F939F933A
:1003C000AF93BF93EF93FF934091A00020E038E0FC
:1003D00035D034D033D032D031D0889476B3742332
:1003E00009F0089427953A9509F0F3CF27D026D045
:1003F000E091A300F091A40080A191A101968F71DA
:10040000992742A153A18417950739F0A0A1B1A162
:10041000AE0FBF1F2C9391A380A3449AFF91EF913D
:10042000BF91AF919F918F917F915F914F913F913C
:100430002F910F900FBE0F901F9018958091A500DF
:10044000982F9A95F1F7089583E08ABD83BF789439
:1004500089B7826089BF80E48CBD8FEF8DBD87EC4A
:1004600080BF86E886B961E083E023DF61E084E055
:1004700020DF62E085E01DDF82E48093A5004398E1
:10048000469A4798419A409A87B32091A000922FAC
:100490009095982397BB88B3822B88BB97B3209104
:1004A000A100922B97BB88B3822B88BB449A439AB6
:1004B00060E083E0C2DE60E084E0BFDE86B380728D
:1004C00017B897B197B9369A3699FECF04B115B1DE
:1004D000882359F1C091A600D091A700209709F474
:1004E00022DEB80117FF02C06F5F7F4F75956795D9
:1004F000072E000C880B990B38D020E030E040EF3D
:1005000051E492D0181664F461E083E096DE60E076
:1005100084E093DE2196D093A700C093A600CECFAF
:1005200060E083E08ADE61E0F3CFFDDDC1CFE4E986
:10053000F0E01382128288EE93E0A0E0B0E08483C2
:100540009583A683B78384E690E09183808380E7D8
:1005500090E0908B878782E0848781E085878EEFAB
:100560008687118A0895E89409C097FB3EF4909518
:100570008095709561957F4F8F4F9F4F9923A9F07C
:10058000F92F96E9BB279395F6958795779567950B
:10059000B795F111F8CFFAF4BB0F11F460FF1BC04F
:1005A0006F5F7F4F8F4F9F4F16C0882311F096E9E2
:1005B00011C0772321F09EE8872F762F05C0662390
:1005C00071F096E8862F70E060E02AF09A95660F49
:1005D000771F881FDAF7880F9695879597F9089502
:1005E000990F0008550FAA0BE0E8FEEF1616170644
:1005F000E807F907C0F012161306E407F50798F0AC
:10060000621B730B840B950B39F40A2661F0232BC4
:10061000242B252B21F408950A2609F4A140A69540
:100620008FEF811D811D0895DBDF08F48FEF0895A2
:10063000EE0FFF1F0590F491E02D0994F894FFCF81
:1006400000000000C20045001001DE00FB00C100F8
:00000001FF
